:020000040800F2
:1000000088070020910100087F1400087714000879
:100010007B14000895040008A51B000800000000E0
:10002000000000000000000000000000711800083F
:100030009904000800000000451800087318000823
:10004000AB010008AB010008AB010008AB010008E0
:10005000AB010008AB010008AB010008AB010008D0
:10006000AB010008AB010008AB010008AB010008C0
:10007000AB010008AB010008AB010008AB010008B0
:10008000AB010008AB010008AB010008AB010008A0
:10009000AB010008AB010008AB010008AB01000890
:1000A000AB010008AB010008AB010008AB01000880
:1000B000AB010008AB010008AB010008AB01000870
:1000C000AB010008AB010008AB010008AB01000860
:1000D000AB010008811B0008AB010008AB01000860
:1000E000AB010008AB010008AB01000800F002F80A
:1000F00000F03FF80AA090E8000C82448344AAF183
:100100000107DA4501D100F034F8AFF2090EBAE880
:100110000F0013F0010F18BFFB1A43F0010318473B
:100120003025000050250000103A24BF78C878C15F
:10013000FAD8520724BF30C830C144BF04680C60ED
:10014000704700000023002400250026103A28BF35
:1001500078C1FBD8520728BF30C148BF0B60704739
:10016000642900F07780002070471FB51FBD10B5CF
:1001700010BD00F05DF91146FFF7F7FF01F0B8FD83
:1001800000F07BF903B4FFF7F2FF03BC01F028FD98
:100190000948804709480047FEE7FEE7FEE7FEE71B
:1001A000FEE7FEE7FEE7FEE7FEE7FEE70448054957
:1001B000054A064B704700007B180008ED00000858
:1001C0008801002088070020880300208803002081
:1001D000704700000FB4044910B503AA029800F05C
:1001E000F9F810BC5DF814FB080000202DE9F0417F
:1001F0000E460446002020622046E168884730B35E
:10020000252805D0D4E901219047206A401CF2E757
:10021000E168204600278847050018D0A5F1410075
:10022000192802D820354FF4006732462946204667
:100230002760FFF795FF40B1012804D0F61D26F096
:1002400007060836D8E7361DD6E72846DAE7206ADB
:10025000BDE8F0812DE9F0410646002410687529BB
:10026000314616A510D0AFF30080002802DA4042D4
:1002700013A507E031688A0701D512A502E04907F6
:1002800004D511A5012401E0AFF3008000210A226A
:1002900006F1240709E0B0FBF2FCB0FBF2F302FB2D
:1002A0001C00303078541846491C0028F3D12346EE
:1002B0002A463046BDE8F04100F033B800000000A7
:1002C0002D0000002B000000200000004FF0000275
:1002D00000B5134694469646203922BFA0E80C503C
:1002E000A0E80C50B1F12001BFF4F7AF090728BF17
:1002F000A0E80C5048BF0CC05DF804EB890028BF93
:1003000040F8042B08BF704748BF20F8022B11F0BB
:10031000804F18BF00F8012B704770477047704737
:1003200070472DE9F0470D4699469246044600F184
:1003300024080168880604D5E06921F010012160D5
:1003400000E00120A84201DD471B00E00027A16971
:100350007A1902EB0900081AA0612078C00602D4BD
:100360002046AFF30080002608E0D4E901211AF806
:1003700006009047206A401C761C20624E45F4DB44
:100380002078C0060AD52046AFF3008006E0D4E905
:10039000012130209047206A401C2062381EA7F1BE
:1003A0000107F4DC07E0D4E9012118F805009047C3
:1003B000206A401C2062281EA5F10105F3DC2046BE
:1003C000AFF300802078000602D50220BDE8F08758
:1003D0000120FBE7074B70B50D467B4400F011F898
:1003E0000446284600F020F810B14FF0FF3070BDF1
:1003F000204670BDB318000001694A1C02610878EC
:10040000704700B58FB0CDE9013100210591054954
:100410007944CDE9031011466846FFF7E7FE0FB0B7
:1004200000BD0000E5FFFFFF007B00F0800070478B
:10043000754600F02BF8AE4605006946534620F09D
:100440000700854618B020B5FFF7B0FEBDE8204094
:100450004FF000064FF000074FF000084FF0000B80
:1004600021F00701AC46ACE8C009ACE8C009ACE833
:10047000C009ACE8C0098D46704710B50446AFF31B
:1004800000802046BDE81040FFF77CBE0048704762
:100490002401002000BFFEE77047000070B504464D
:1004A000002594F82100022803D00420A063012530
:1004B00048E02068006820F00E002168086020688D
:1004C000006820F00100216808601F492068884208
:1004D00001D1012026E01C4914312068884201D155
:1004E00010201FE0184928312068884201D180156A
:1004F00018E015493C312068884201D1801411E090
:10050000114950312068884202D14FF4803009E00F
:100510000D4964312068884202D14FF4801001E017
:100520004FF08070084908394860012084F82100A4
:1005300000BF002084F8200000BF606B10B120468F
:10054000616B8847284670BD080002402DE9F847D6
:100550000346002294466EE14FF0010808FA02F4C7
:10056000D1F8008008EA0400A0427DD1DFF8DCA2C7
:10057000D1F80480A8EB0A09D0453AD014DCB8F1D0
:10058000030F50D009DCB8F1000F31D0B8F1010FE2
:100590001CD0B8F1020F49D120E0B8F1110F18D0EA
:1005A000B8F1120F42D11EE0B9F5881F25D006DC44
:1005B000B9F5803F20D0B9F5801F37D11AE0B9F5E1
:1005C000001F18D0B9F5041F30D117E0D1F80CC0C6
:1005D0002DE0D1F80C8008F1040C28E0D1F80C8053
:1005E00008F1080C23E0D1F80C8008F10C0C1EE097
:1005F00000BF00BF00BF00BF00BF00BFD1F8088030
:10060000B8F1000F02D14FF0040C0BE0D1F80880D4
:10061000B8F1010F03D14FF0080C1C6102E04FF05C
:10062000080C5C6103E04FF0000C00E000BF00BF6D
:10063000FF2801D8984601E003F104084646FF2848
:1006400002D84FEA820803E0A2F108084FEA8808BE
:100650004746D6F800804FF00F0909FA07F928EA53
:1006600009080CFA07F900E088E048EA0908C6F82A
:100670000080D1F8048008F08058B8F1805F7DD107
:1006800000BFDFF8CC81D8F8188048F00108DFF807
:10069000C091C9F81880C846D8F8188008F0010839
:1006A000CDF8008000BF00BF4FEAB9384FEA920989
:1006B00058F829504FEA82784FEA18794FF00F081E
:1006C00008FA09F825EA0805DFF88881434502D1D0
:1006D0004FF0000816E0DFF88081434502D14FF06B
:1006E00001080FE0DFF87481434502D14FF00208A2
:1006F00008E0DFF86C81434502D14FF0030801E0C8
:100700004FF004084FEA82794FEA197908FA09F89C
:1007100048EA0505DFF84C814FEA920948F829506C
:10072000D1F8048008F48038B8F5803F0AD1DFF8AA
:100730003881D8F8008048EA0008DFF82C91C9F821
:10074000008009E0DFF82081D8F8008028EA00085E
:10075000DFF81491C9F80080D1F8048008F400385B
:10076000B8F5003F10D1DFF8008108F10408D8F88F
:10077000008048EA0008DFF8F09000E05AE009F154
:100780000409C9F800800DE0DFF8DC8008F10408F6
:10079000D8F8008028EA0008DFF8CC9009F10409B5
:1007A000C9F80080D1F8048008F48018B8F5801FDB
:1007B0000ED1DFF8B48008F10808D8F8008048EAC4
:1007C0000008DFF8A49009F10809C9F800800DE0DD
:1007D000DFF8948008F10808D8F8008028EA0008BB
:1007E000DFF8849009F10809C9F80080D1F8048085
:1007F00008F40018B8F5001F0ED1DFF86C8008F17E
:100800000C08D8F8008048EA0008DFF85C9009F18D
:100810000C09C9F800800DE0DFF84C8008F10C08E5
:10082000D8F8008028EA0008DFF83C9009F10C09AC
:10083000C9F80080521CD1F8008028FA02F8B8F1FB
:10084000000F7FF489AEBDE8F887000000001110AA
:100850000010024000080140000C0140001001405F
:100860000014014008000140000401400AB1016188
:1008700001E00B0403617047014800687047000005
:100880001000002003480068034909780844014922
:1008900008607047100000201800002010B50848BC
:1008A000006840F0100006490860032000F080F85E
:1008B0000F2000F007F800F02BF8002010BD00001A
:1008C0000020024070B504460E4800784FF47A715B
:1008D000B1FBF0F00C490968B1FBF0F5284600F0D7
:1008E000F7FB08B1012070BD102C07D20022214671
:1008F000501E00F01EF80548046001E00120F2E7F8
:100900000020F0E718000020000000201400002064
:10091000704701460846002809DB00F01F0301224A
:100920009A4043099B0003F1E023C3F8002100BF74
:1009300070472DE9F05F80460D461646002701F00E
:1009400033F9074639462A46334601F00700C0F11D
:10095000070ABAF1040F02D94FF0040A01E0C0F10E
:10096000070AD14600F1040ABAF1070F02D24FF08C
:10097000000A01E0A0F1030AD4464FF0010A0AFA86
:1009800009FAAAF1010A0AEA020A0AFA0CFA4FF075
:10099000010B0BFA0CFBABF1010B0BEA030B4AEA60
:1009A0000B042146404601F007F9BDE8F09F000026
:1009B00000BF00F00702064B19684FF6FF0319400D
:1009C000044B0B4343EA0221014B196000BF7047FF
:1009D0000CED00E00000FA0570B504460D460CB9B8
:1009E000012070BD5A48006800F00700A8420ED2EE
:1009F0005748006820F0070028435549086008461A
:100A0000006800F00700A84201D00120E9E7207843
:100A100000F0020002281DD1207800F00400042814
:100A200005D14C48406840F4E0604A49486020786D
:100A300000F00800082805D14648406840F460509E
:100A4000444948604348406820F0F000A1680843EA
:100A500040494860207800F0010078B360680128C0
:100A600006D13C48006800F4003090B90120B8E796
:100A70006068022806D13748006800F0007040B96D
:100A80000120AEE73348006800F0020008B90120F9
:100A9000A7E73048406820F00300616808432D490B
:100AA0004860FFF7E9FE064609E0FFF7E5FE801B18
:100AB00041F28831884202D9032092E707E02548B5
:100AC000406800F00C006168B0EB810FEDD1204868
:100AD000006800F00700A8420ED91D48006820F009
:100AE000070028431A4908600846006800F007001C
:100AF000A84201D0012074E7207800F00400042807
:100B000007D11448406820F4E060E16808431149C7
:100B10004860207800F00800082808D10D48406897
:100B200020F46050216940EAC1000A49486000F0A1
:100B30003FF808494968C1F30311074A515CC840AE
:100B40000649086006480068FFF7BCFE002048E739
:100B50000020024000100240201E0008000000207B
:100B600014000020014800687047000000000020C9
:100B700000B5FFF7F7FF04494968C1F30221034AB2
:100B8000515CC84000BD000000100240301E00084B
:100B900000B5FFF7E7FF04494968C1F3C221034AE2
:100BA000515CC84000BD000000100240301E00082B
:100BB000F0B585B00FF26C0C9CE8E01001A8A0E83D
:100BC000E0101CA52D6800950021002200230024C0
:100BD0000020194D696801F00C05F5B1042D02D013
:100BE000082D19D101E0154819E001ADC1F3834684
:100BF000AC5D01F4803555B10F4D6D68C5F34045CE
:100C00001DF805200D4D6543B5FBF2F302E00C4DD8
:100C100004FB05F3184602E000BF084800BF00BF10
:100C200005B0F0BD02030405060708090A0B0C0D08
:100C30000E0F1010010200000010024000127A0096
:100C400000093D00F8B504460CB90120F8BD207834
:100C500000F00100002878D0F848406800F00C004F
:100C600004280CD0F548406800F00C00082811D189
:100C7000F248406800F48030B0F5803F0AD1EF4878
:100C8000006800F4003000285FD0606800285CD164
:100C90000120DBE700BF6068B0F5803F06D1E74880
:100CA000006840F48030E549086028E0606858B981
:100CB000E248006820F48030E04908600846006897
:100CC00020F4802008601AE06068B0F5A02F0BD1F6
:100CD000DA48006840F48020D84908600846006877
:100CE00040F4803008600AE0D448006820F4803086
:100CF000D24908600846006820F48020086000BFE0
:100D0000606888B1FFF7B8FD054606E0FFF7B4FD5F
:100D1000401B642801D9032098E7C848006800F404
:100D200000300028F2D010E0FFF7A6FD054606E0EF
:100D3000FFF7A2FD401B642801D9032086E7BF48C6
:100D4000006800F400300028F2D1207800F00200A2
:100D5000022857D1B948406800F00C0050B1B7489C
:100D6000406800F00C00082818D1B448406800F42E
:100D7000803098B9B148006800F0020020B12069C5
:100D8000012801D0012061E7AC48006820F0F8009C
:100D9000616940EAC100A949086033E02069E8B10F
:100DA0000120A7490860FFF767FD054606E0FFF749
:100DB00063FD401B022801D9032047E79F480068D4
:100DC00000F002000028F2D09C48006820F0F800F3
:100DD000616940EAC1009949086013E00020984920
:100DE0000860FFF749FD054606E0FFF745FD401B9B
:100DF000022801D9032029E79048006800F002008A
:100E00000028F2D1207800F0080008282DD1A06930
:100E1000B8B101208B490860FFF72EFD054606E0BA
:100E2000FFF72AFD401B022801D903200EE7834863
:100E3000406A00F002000028F2D0012000F004FD1A
:100E400013E000207F490860FFF716FD054606E025
:100E5000FFF712FD401B022801D90320F6E6774870
:100E6000406A00F002000028F2D1207800F004006F
:100E7000042873D100277148C06900F0805070B910
:100E800000BF6E48C06940F080506C49C861084698
:100E9000C06900F08050009000BF00BF01276A4881
:100EA000006800F48070B0B96748006840F4807052
:100EB00065490860FFF7E0FC054606E0FFF7DCFC4B
:100EC000401B642801D90320C0E65F48006800F495
:100ED00080700028F2D000BFE068012806D1574892
:100EE000006A40F001005549086227E0E06858B9FF
:100EF0005248006A20F00100504908620846006A22
:100F000020F00400086219E0E06805280BD14B4886
:100F1000006A40F00400494908620846006A40F04F
:100F2000010008620AE04548006A20F001004349D8
:100F300008620846006A20F00400086200BFE0680A
:100F4000A0B1FFF799FC054609E0FFF795FC401BAF
:100F500041F28831884202D9032077E622E03748FF
:100F6000006A00F002000028EFD012E0FFF784FCD6
:100F7000054608E0FFF780FC401B41F288318842BB
:100F800001D9032062E62D48006A00F00200002823
:100F9000F0D1012F05D12948C06920F080502749A0
:100FA000C86100BFE069C8B32448406800F00C0085
:100FB000082860D0E069022848D10020204908664E
:100FC000FFF75AFC054606E0FFF756FC401B0228D7
:100FD00001D903203AE61948006800F000700028A3
:100FE000F2D1206AB0F5803F07D11448406820F460
:100FF0000030A168084311494860D4E9080108435A
:101000000E49496821F4741108430C4948600120D5
:101010000B490866FFF730FC054607E03DE0FFF7A7
:101020002BFC401B022801D903200FE6034800686F
:1010300000F000700028F2D02FE000000010024005
:1010400000004242800442420070004000201449E7
:101050000866FFF711FC054606E0FFF70DFC401B94
:10106000022801D90320F1E50E48006800F0007065
:101070000028F2D111E0E069012800D1E6E5094835
:10108000466806F48031206A814204D106F470116A
:10109000606A814201D00120D8E50020D6E5000039
:1010A0000000424200100240042808D14FF0E02125
:1010B000096941F004014FF0E022116107E04FF0AF
:1010C000E021096921F004014FF0E022116170472D
:1010D00070B504462546681EB0F1807F01D301201B
:1010E0000FE0681E4FF0E02148610F214FF0FF3004
:1010F00000F062FD00204FF0E021886107200861C8
:10110000002070BD704700002DE9F04704462068BC
:1011100005682068C668206847694FF00008C14626
:1011200005F00F08B8F1000F0AD105F0200038B122
:1011300006F0200020B1204600F0CAFBBDE8F08791
:10114000B8F1000F6DD007F0010018B906F49070E7
:10115000002866D005F0010030B106F4807018B1A7
:10116000E06B40F00100E06305F0040030B107F0EF
:10117000010018B1E06B40F00200E06305F00200EE
:1011800030B107F0010018B1E06B40F00400E063FB
:1011900005F0080030B107F0010018B1E06B40F035
:1011A0000800E063E06B68B305F0200028B106F0AA
:1011B000200010B1204600F08BFB20684069C0F38E
:1011C0008019E06B00F0080010B9B9F1000F22D0CF
:1011D000204600F05DFB2068406900F04000B0B19F
:1011E0002068406920F0400021684861606B50B180
:1011F0001748616B4863606BFFF750F910B1606B83
:10120000416B88470CE02046FFF77CFF08E0204652
:10121000FFF778FF04E02046FFF774FF0020E0634B
:101220008CE705F0800030B106F0800018B1204650
:1012300000F072FC82E705F0400030B106F040009B
:1012400018B1204600F034FB78E700BF76E70000D5
:101250007D18000810B504460CB9012010BDA06926
:1012600000B100E000BF94F8390028B9002084F8EC
:101270003800204600F028F8242084F8390020683F
:10128000C06820F400502168C860204600F074FB5C
:101290002068006920F49040216808612068406956
:1012A00020F02A00216848612068C06840F400509E
:1012B0002168C8600020E063202084F8390084F8A9
:1012C0003A000020CAE7000010B586B0044628495D
:1012D000206888424AD100BF00BF2648806940F09C
:1012E0000400244988610846806900F004000190E8
:1012F00000BF00BF00BF00BF00BF0846806940F0CC
:10130000040088610846806900F00400019000BF75
:1013100000BF00BF00BF00BF0846806940F48040A6
:1013200088610846806900F48040019000BF00BFDA
:1013300000BF481502900220039001200490032072
:10134000059002A90C48FFF701F94FF48060029064
:101350000020039002A90848FFF7F8F82520FFF7BE
:10136000D8FA032211462520FFF7E3FA06B010BD94
:1013700000380140001002400008014010B503464B
:1013800093F83A0020282FD101B10AB9012010BDED
:1013900000BF93F83800012801D10220F7E70120AF
:1013A00083F8380000BF99629A85DA850020D863F7
:1013B000222083F83A0000BF002083F8380000BFE5
:1013C0001868C06840F480701C68E0601868406964
:1013D00040F001001C6860611868C06840F020009F
:1013E0001C68E0600020D2E70220D0E71D4A0168B7
:1013F000914236D11C49098801F4004189BB1A4940
:10140000098801F4804171B1184909780A2903D08B
:101410000021154A118024E01349098841F4004154
:10142000114A11801DE0114909780D2906D10E4994
:10143000098841F480410C4A118012E00B49097877
:10144000094A1288C2F30D02094B995406490988CA
:10145000491C054A118011460988C72901DD002170
:1014600011807047003801400C0000200E00002061
:101470001C000020704700BFFEE700BFFEE770477A
:1014800070B5002419E004F1B001C8B2002100F0E9
:1014900091F90021022000F08DF90021102000F0C8
:1014A00089F9002505E00121002000F083F9681C7E
:1014B000C5B2802DF7DB601CC4B2082CE3DB70BD25
:1014C00000B585B000BF8048806940F008007E49C3
:1014D00088610846806900F00800009000BF00BFE6
:1014E00000BF0846806940F00400886108468069B2
:1014F00000F00400009000BF00BF00BF08468069F4
:1015000040F0010088610846806900F00100009009
:1015100000BF00BF00BF6D49486820F0E06040F0A8
:101520000070486000BF88150190012002900320E0
:10153000049001A96648FFF709F8012211026448E6
:10154000FFF794F94FF40040019001A96148FEF7BC
:10155000FDFF0122D1035F48FFF788F94FF40050E7
:10156000019001A95B48FEF7F1FF012251035948A0
:10157000FFF77CF94FF48050019001A95548FEF720
:10158000E5FF012211035348FFF770F94FF4804043
:10159000019001A94F48FEF7D9FF012291034D4860
:1015A000FFF764F9012291034A48FFF75FF94A48BF
:1015B00000F048FB00224FF480414648FFF756F9FF
:1015C000454800F03FFB012291034248FFF74EF9E6
:1015D0000021AE2000F0EEF80021022000F0EAF831
:1015E0000021102000F0E6F80021402000F0E2F891
:1015F0000021812000F0DEF80021CF2000F0DAF891
:101600000021A12000F0D6F80021C82000F0D2F877
:101610000021A62000F0CEF80021A82000F0CAF892
:1016200000213F2000F0C6F80021D32000F0C2F8CE
:101630000021084600F0BEF80021D52000F0BAF8DD
:101640000021802000F0B6F80021D92000F0B2F887
:101650000021F12000F0AEF80021DA2000F0AAF815
:101660000021122000F0A6F80021DB2000F0A2F8F3
:101670000021402000F09EF80021202000F09AF880
:101680000021022000F096F800218D2000F092F851
:101690000021142000F08EF80021A42000F08AF828
:1016A0000021A62000F086F80021AF2000F082F88B
:1016B0000021AF2000F07EF8FFF7E2FE002108468F
:1016C00000F00CF805B000BD001002400000014021
:1016D00000080140000C0140A086010070B50446DE
:1016E0000D4605F1B001C8B2002100F063F81021E9
:1016F00041EA1410002100F05DF804F00F0141F000
:101700000100002100F056F870BD00002DE9F04105
:1017100007460E46904600250024A8F12000C5B2D9
:101720007F2F02DD0027B01CC6B231463846FFF7D6
:10173000D5FF002408E004EB05110F4A505C01219D
:1017400000F038F8601CC4B2082CF4DB701CC1B285
:101750003846FFF7C3FF002409E004EB0511083108
:10176000054A505C012100F025F8601CC4B2082C29
:10177000F3DBBDE8F0810000602000082DE9F041B6
:1017800004460F46154600260EE0AA5D394620465F
:10179000FFF7BCFF04F10800C4B2782C02DD00247E
:1017A000B81CC7B2701CC6B2A85D0028EDD1BDE858
:1017B000F081000070B504460E462EB1012251039F
:1017C0001E48FFF753F805E000224FF400511B4874
:1017D000FFF74CF800224FF480511848FFF746F805
:1017E00000251DE000224FF480711548FFF73EF8F8
:1017F00004F0800028B10122D1031048FFF736F829
:1018000005E000224FF400410C48FFF72FF80122B9
:1018100011020B48FFF72AF86006040E681CC5B2D7
:10182000082DDFDB012211030448FFF71FF8012216
:1018300051030248FFF71AF870BD0000000C014088
:10184000000801407047000008B508490968C90848
:101850004FF47A72B1FBF2F14143009100BF00BF37
:1018600000994A1E00920029F9D108BD000000200D
:10187000704710B5FFF706F810BD704770B5054604
:101880006C6A0020E085E0842046FFF73BFC70BDD9
:101890000168C96821F490710268D16001684969E2
:1018A00021F0010102685161202180F83A1070474F
:1018B00010B504462068C06820F040002168C86068
:1018C000202084F839002046FFF7D4FD002010BD09
:1018D00070B5044694F83A0022284AD1A068B0F5C1
:1018E000805F13D1A56A206940B920684068C0F3C1
:1018F00008002880A06A801CA06219E02068406867
:10190000C0B22880A06A401CA06211E0206938B9EA
:1019100020684068C1B2A26A501CA062117007E042
:101920002068406800F07F01A26A501CA06211701C
:10193000E08D401E80B2E085C8B92068C06820F004
:1019400020002168C8602068C06820F48070216889
:10195000C8602068406920F00100216848612020AB
:1019600084F83A002046FFF741FD002070BD0020BA
:10197000FCE70220FAE7000070B504462168096917
:1019800021F44051E2681143226811612269A16883
:101990001143626941EA02052168C96841F20C629B
:1019A000914329432268D1602168496921F440713B
:1019B000A269114322685161564A2168914254D16B
:1019C000FFF7E6F800EBC00101EB0011626892003E
:1019D000B1FBF2F100EBC00202EB001263689B0066
:1019E000B2FBF3F26423B2FBF3F202EBC20303EBAC
:1019F0000212A1EB8201322202EB01116422B1FB3F
:101A0000F2F101F0F00100EBC00202EB001263689A
:101A10009B00B2FBF3F26423B2FBF3F201EB021280
:101A200000EBC00101EB001163689B00B1FBF3F117
:101A300000EBC00303EB00136668B600B3FBF6F3DC
:101A40006426B3FBF6F303EBC30606EB0313A1EB2B
:101A50008301322303EB01116423B1FBF3F101F0A5
:101A60000F0111442268916053E0FFF781F800EB09
:101A7000C00101EB001162689200B1FBF2F100EBD2
:101A8000C00202EB001263689B00B2FBF3F2642316
:101A9000B2FBF3F202EBC20303EB0212A1EB8201F1
:101AA000322202EB01116422B1FBF2F101F0F001EC
:101AB00000EBC00202EB001263689B00B2FBF3F282
:101AC0006423B2FBF3F201EB021200EBC00101EB65
:101AD000001163689B00B1FBF3F100EBC00303EB63
:101AE00000136668B600B3FBF6F36426B3FBF6F3A7
:101AF00003EBC30606EB0313A1EB8301322303EBD5
:101B000001116423B1FBF3F101F00F0111442268CC
:101B1000916070BD00380140014691F839002128DC
:101B20002CD18868B0F5805F0FD10A6A1088C0F3A5
:101B300008000B685860086918B9086A801C0862B8
:101B400009E0086A401C086205E00B6A581C08623C
:101B500018780B685860C88C401E80B2C88458B989
:101B60000868C06820F080000B68D8600868C0680A
:101B700040F040000B68D860002070470220FCE76E
:101B800010B50648FFF7C0FA00BF01220449034818
:101B9000FFF7F4FB0028F8D110BD0000E40000209E
:101BA0000E00002000BFFEE702480068C0F30220DC
:101BB000704700000CED00E010B5002804DB0A07B8
:101BC000130E054A135406E00A07140E034A00F0E8
:101BD0000F031B1FD45410BD00E400E018ED00E01B
:101BE00000BF704710B5044600204FF0E0210861A7
:101BF000FFF75AFA2046E11704EB5171C1F3CF0108
:101C0000014A118010BD00000600002070B5044696
:101C10004FF47A7094FBF0F594FBF0F100FB114661
:101C200003E0074800F00EF86D1E002DF9D12EB12B
:101C30004FF47A7106FB01F000F004F870BD00006B
:101C400040420F000146114A12884A434FF0E023F8
:101C50005A6100229A611A46126942F001021A6121
:101C600000BF4FF0E022106900F001021AB100F449
:101C70008032002AF5D04FF0E022126922F00102F2
:101C80004FF0E0231A6100229A617047060000209D
:101C900000BF054A126802F04002002AF9D0C2B221
:101CA000014B1B1D1A6070470038014000B585B01C
:101CB00000BF0D48806940F008000B498861084664
:101CC000806900F00800009000BF00BF2020019054
:101CD0000120029003900320049001A90348FEF71D
:101CE00035FC05B000BD000000100240000C0140B2
:101CF000FEF7D4FD4FF4E01000F042F84820FFF763
:101D000071FFFFF7D3FF4FF4E13000F06DF8FFF7FC
:101D1000D7FB11A200210846FFF730FD1BE001228E
:101D200020211048FEF7A2FD4FF4FA70FFF76EFF76
:101D3000002220210B48FEF799FD0B4801880BA0DB
:101D4000FEF748FA08480088401C074908804FF40D
:101D5000FA70FFF75BFFE2E753544D3332433854D8
:101D600036000000000C01400400002077656C6321
:101D70006F6D652025642074696D6573200A00000D
:101D800030B58FB005460124282105A8FEF79EFA3C
:101D900014216846FEF79AFA012005900004069087
:101DA0000020079002200C90C1030D910E9505A80C
:101DB000FEF748FF04460CB100BFFEE70F2000907D
:101DC00002200190002002904FF4806003900020D8
:101DD000049002216846FEF7FFFD04460CB100BFE7
:101DE000FEE70FB030BD000010B5044609480A49AF
:101DF00008600846446000218160C1600161816122
:101E00000C214161FFF726FA012204490248FFF73D
:101E1000B5FA10BD00380140E40000200E0000209B
:101E2000000000000000000001020304060708098A
:101E30000000000001020304000000000000000098
:101E4000002F000000000700070000147F147F141B
:101E500000242A7F2A1200626408132300364955A1
:101E6000225000000503000000001C224100000079
:101E700041221C000014083E08140008083E08080F
:101E8000000000A06000000808080808000060606A
:101E90000000002010080402003E5149453E0000A9
:101EA000427F4000004261514946002141454B318B
:101EB000001814127F10002745454539003C4A4957
:101EC00049300001710905030036494949360006C9
:101ED0004949291E00003636000000005636000031
:101EE00000081422410000141414141400004122AC
:101EF000140800020151090600324959513E007C84
:101F00001211127C007F49494936003E414141226D
:101F1000007F4141221C007F49494941007F090956
:101F20000901003E4149497A007F0808087F000006
:101F3000417F4100002040413F01007F08142241C1
:101F4000007F40404040007F020C027F007F040879
:101F5000107F003E4141413E007F09090906003ED5
:101F60004151215E007F09192946004649494931FE
:101F70000001017F0101003F4040403F001F204021
:101F8000201F003F4038403F0063140814630007DF
:101F90000870080700615149454300007F41410036
:101FA00000552A552A55000041417F0000040201D6
:101FB00002040040404040400000010204000020B4
:101FC00054545478007F48444438003844444420F2
:101FD00000384444487F00385454541800087E099F
:101FE00001020018A4A4A47C007F08040478000067
:101FF000447D4000004080847D00007F1028440024
:102000000000417F4000007C04180478007C080434
:10201000047800384444443800FC24242418001870
:10202000242418FC007C080404080048545454205C
:1020300000043F444020003C4040207C001C2040E5
:10204000201C003C4030403C004428102844001C28
:10205000A0A0A07C004464544C4414141414141420
:102060000000000000000000000000000000000070
:10207000000000F800000000000000333000000005
:1020800000100C06100C060000000000000000000C
:1020900040C07840C0784000043F04043F0404007E
:1020A000007088FC08300000001820FF211E00008E
:1020B000F008F000E018000000211C031E211E00A3
:1020C00000F00888700000001E2123241927211029
:1020D00010160E00000000000000000000000000CC
:1020E000000000E018040200000000071820400073
:1020F00000020418E0000000004020180700000063
:10210000404080F0804040000202010F01020200C6
:10211000000000F0000000000101011F01010100AA
:10212000000000000000000080B07000000000000F
:102130000000000000000000000101010101010198
:10214000000000000000000000303000000000002F
:102150000000000080601804006018060100000004
:1021600000E010080810E000000F102020100F0001
:10217000001010F8000000000020203F2020000088
:1021800000700808088870000030282422213000E0
:1021900000300888884830000018202020110E00E8
:1021A0000000C02010F8000000070424243F240091
:1021B00000F80888880808000019212020110E0066
:1021C00000E0108888180000000F112020110E0078
:1021D00000380808C83808000000003F0000000070
:1021E0000070880808887000001C222121221C0031
:1021F00000E010080810E0000000312222110F005A
:10220000000000C0C00000000000003030000000EE
:10221000000000800000000000008060000000005E
:102220000000804020100800000102040810200077
:1022300040404040404040000404040404040400C2
:102240000008102040800000002010080402010057
:10225000007048080808F000000000303601000057
:10226000C030C828E810E0000718272423140B000A
:102270000000C038E0000000203C23020227382084
:1022800008F8888888700000203F202020110E0068
:10229000C03008080808380007182020201008005F
:1022A00008F808080810E000203F202020100F0048
:1022B00008F88888E8081000203F20202320180014
:1022C00008F88888E8081000203F2000030000007C
:1022D000C03008080838000007182020221E02001D
:1022E00008F808000008F808203F210101213F20DC
:1022F000000808F8080800000020203F2020000007
:1023000000000808F8080800C08080807F000000F6
:1023100008F888C028180800203F2001263820002F
:1023200008F8080000000000203F20202020300096
:1023300008F8F800F8F80800203F003F003F2000B0
:1023400008F830C00008F808203F200007183F00B8
:10235000E01008080810E0000F10202020100F00E7
:1023600008F808080808F000203F210101010000DA
:10237000E01008080810E0000F18242438504F001F
:1023800008F8888888887000203F2000030C3020DF
:1023900000708808080838000038202121221C001D
:1023A000180808F8080818000000203F2000000066
:1023B00008F808000008F808001F202020201F004F
:1023C0000878880000C83808000007380E010000AF
:1023D000F80800F80008F800033C0700073C030079
:1023E000081868808068180820302C03032C3020DF
:1023F0000838C800C83808000000203F200000004E
:1024000010080808C83808002038262120201800A5
:10241000000000FE020202000000007F4040400079
:10242000000C30C000000000000000010638C000B1
:1024300000020202FE000000004040407F00000059
:10244000000004020202040000000000000000007E
:10245000000000000000000080808080808080807C
:102460000002020400000000000000000000000064
:1024700000008080808000000019242222223F205A
:1024800008F8008080000000003F112020110E009D
:102490000000008080800000000E1120202011002C
:1024A000000000808088F800000E112020103F20DE
:1024B0000000808080800000001F22222222130062
:1024C000008080F0888888180020203F20200000AD
:1024D0000000808080808000006B94949493600062
:1024E00008F8008080800000203F210000203F206D
:1024F00000809898000000000020203F202000006D
:10250000000000809898000000C08080807F00005C
:1025100008F8000080808000203F24022D30200039
:10252000000808F8000000000020203F20200000E4
:102530008080808080808000203F20003F20003FFE
:102540008080008080800000203F210000203F200C
:102550000000808080800000001F202020201F00BD
:10256000808000808000000080FFA12020110E00EC
:102570000000008080808000000E112020A0FF80DD
:10258000808080008080800020203F21200001008A
:1025900000008080808080000033242424241900DF
:1025A000008080E0808000000000001F20200000EC
:1025B0008080000000808000001F202020103F202D
:1025C000808080000080808000010E3008060100BD
:1025D00080800080008080800F300C030C300F0062
:1025E00000808000808080000020312E0E3120008D
:1025F000808080000080808080818E7018060100BD
:1026000000808080808080000021302C22213000DA
:1026100000000000807C020200000000003F4040FB
:1026200000000000FF00000000000000FF000000AC
:102630000002027C800000000040403F00000000DB
:102640000006010102020404000000000000000076
:1026500070260008000000201C000000280100086F
:102660008C2600081C0000206C07000044010008B4
:102670000024F40001000000000000000000000041
:0C2680000000000010000000010000003D
:04000005080000ED02
:00000001FF
